S00A000041502E7372656389
S11300005AC0000073C0000071C000006FC000003F
S11300106DC000006BC0000069C0000067C0000034
S113002065C0000063C0000061C000005FC0000044
S11300305DC000005BC0000059C0000057C0000054
S113004055C0000053C0000030C100004FC0000084
S11300504DC000004BC0000049C0000047C0000074
S113006045C0000043C00000D801E901FA010B02B9
S11300701C022D023E024F025354415254002000F0
S1130080576946692041500043505354004350532C
S1130090560043504D550043575341500043495077
S11300A041500043574D4F44450041544530007280
S11300B065616479000011241FBECFEFD8E0DEBF74
S11300C0CDBF11E0A0E0B1E0E8E4F6E002C00590A5
S11300D00D92A63AB107D9F721E0A6EAB1E001C032
S11300E01D92AF3EB207E1F7DED1ACC289CF6623E1
S11300F031F09091A601892B8093A60106C09091BE
S1130100A601809589238093A60141984298809105
S1130110A60185FF02C0409A01C04098429A4298C5
S11301208091A60184FF02C0409A01C04098429A7F
S113013042988091A60183FF02C0409A01C0409872
S1130140429A42988091A60182FF02C0409A01C05F
S11301504098429A42988091A60181FF02C0409A39
S113016001C04098429A42988091A60180FF02C043
S1130170409A01C04098429A419A0895CF93C82F5B
S1130180613019F481E0B3DF03C060E081E0AFDFE8
S113019061E082E0ACDFC4FF04C061E084E0A7DF7B
S11301A003C060E084E0A3DFC5FF04C061E088E031
S11301B09EDF03C060E088E09ADFC6FF04C061E010
S11301C080E195DF03C060E080E191DFCC2324F47B
S11301D061E080E28CDF03C060E080E288DF60E001
S11301E082E085DF8FE39FE10197F1F700C0000013
S11301F061E082E07CDFC0FF04C061E084E077DF7F
S113020003C060E084E073DFC1FF04C061E088E004
S11302106EDF03C060E088E06ADFC2FF04C061E013
S113022080E165DF03C060E080E161DFC3FF04C0FB
S113023061E080E25CDF03C060E080E258DF60E000
S113024082E055DF8FE39FE10197F1F700C00000E2
S1130250CF91089587B1876087B92FEF89EF90E038
S1130260215080409040E1F700C0000060E082E14E
S113027085DF60E08CE082DF60E081E07FDF60E0CA
S113028086E07CCF0895CF93DF93EC012196FC01A7
S11302908491882339F061E071DFFE018491219615
S11302A08111F9CFDF91CF9108951F920F920FB66C
S11302B00F9211248F93EF93FF938091C600809344
S11302C0EE018091EE018A3021F08091EE018D30B3
S11302D049F48091AA01882329F01092AA0181E0AF
S11302E08093A9018091EE018D30A9F08091EE01F7
S11302F08A3089F0E091AA0181E08E0F8093AA01EF
S1130300F0E08091EE01E455FE4F80838091AA01D4
S11303108F738093AA01FF91EF918F910F900FBE7D
S11303200F901F90189560E071E08CEA91E070D115
S11303309093ED018093EC01892B21F081E080936F
S1130340AB01089564E071E08CEA91E061D1892BFE
S113035051F060E080E812DF8FEA90E094DF81E002
S11303608093A70125C06AE071E08CEA91E050D146
S1130370892B09F497C08091A7019FEF980F9830BB
S113038018F48F5F8093A70180E4ECEAF1E0DF01C9
S11303901D928A95E9F7E091A7018E2F90E0FC0168
S11303A03197E830F10508F07DC0EC5CFF4F23C1C4
S11303B060E080ECE3DE8AEA90E065DF8FE39CE9AD
S11303C00197F1F700C000008DE091E001D10EC16A
S11303D0089560E084E9D2DE83EA90E054DFAFE37D
S11303E0BCE91197F1F700C0000082E191E0F0D080
S11303F0FDC0089560E084EDC1DE8DE990E043DF47
S11304008FE39CE90197F1F700C000008EE191E0D1
S1130410DFD0ECC0089560E08AE8B0DE87E990E0C0
S113042032DFAFE3BCE91197F1F700C0000087E5C4
S113043091E0CED0DBC0089560E08AEC9FDE82E9D3
S113044090E021DF8FE39CE90197F1F700C0000001
S11304508AE791E0BDD0CAC0089560E08EE98EDEDF
S11304608DE890E010DFAFE3BCE91197F1F700C02D
S1130470000086E891E0ACD0B9C0089560E08EED4C
S11304807DDE88E890E0FFDE8FE39CE90197F1F7D9
S113049000C0000088E991E09BD0A8C0089581E0E5
S11304A08093A8010895CF93DF93CDB7DEB7C054EE
S11304B0D1090FB6F894DEBF0FBECDBF75D0CADE2A
S11304C0789480E890E0DFDECE0101966C017E0135
S11304D094E0E90EF11C6894992496F8AC2CBD2C98
S11304E08091A901882309F44EC01092A9011BDF51
S11304F08091AB01882309F446C060E080E83EDEC9
S11305008EE790E0C0DE6CEA71E08A2D9B2D79D0F5
S1130510BE01665F7F4F8A2D9B2D73D0898190E049
S1130520C0978230910571F01CF4019739F015C021
S11305308330910559F0049769F00FC060E080E8BA
S11305401DDE0BC060E080E919DE07C060E084EEC8
S113055015DE03C060E084ED11DEBE016D5F7F4FE8
S11305608A2D9B2D4ED0860161E0F80181918F0187
S113057005DE0E151F05C1F71092AB01F601892D9A
S113058011928A95E9F78091A801882309F4A8CFEC
S11305901092A80160E081E0F1DD60E085ECEEDD21
S11305A088E790E070DE9CCF1092C50088E08093CD
S11305B0C40088E98093C10086E08093C200089556
S11305C0E0ECF0E0908195FFFDCF8093C6000895A4
S11305D0CF93DF93EC018881882329F02196F0DF03
S11305E089918111FCCFDF91CF9108958DE0E8DFEF
S11305F08AE0E6CF0895EE0FFF1F0590F491E02DF9
S11306000994FB01DC0101900D920020E1F70895AB
S1130610FB0151915523A9F0BF01DC014D91451710
S11306204111E1F759F4CD010190002049F04D91B9
S113063040154111C9F3FB014111EFCF81E090E076
S10B064001970895F894FFCF1F
S1130648495044007265616479004F4B0041544538
S1130658300041542B43574D4F44453D32004154DB
S11306682B43495041505F4445463D223139322E8F
S11306783136382E342E30222C223139322E31366E
S1130688382E342E30222C223235352E3235352E62
S11306983235352E30220041542B43575341505F95
S11306A84445463D2250545054222C22313233348E
S11306B831323334222C362C340041542B434950E4
S11306C84D55583D310041542B43495053455256DA
S11306D845523D312C38310041542B434950535431
S10906E84F3D31303000EB
S9030000FC
