S00A000041502E7372656389
S11300005EC0000077C0000075C0000073C000002F
S113001071C000006FC000006DC000006BC0000024
S113002069C0000067C0000065C0000063C0000034
S113003061C000005FC000005DC000005BC0000044
S113004059C0000057C0000034C1000053C0000074
S113005051C000004FC000004DC000004BC0000064
S113006049C0000047C00000D201E301F4010502C9
S11300701602270238024902535441525400576968
S11300804669207369676E616C0053544152540091
S11300904350535400435053560043504D5500436E
S11300A0575341500043495041500043574D4F442A
S11300B045004154453000726561647900001124A3
S11300C01FBECFEFD8E0DEBFCDBF11E0A0E0B1E0AE
S11300D0E4E6F5E002C005900D92A23AB107D9F723
S11300E021E0A2EAB1E001C01D92A93EB207E1F706
S11300F0D7D136C285CF662331F09091A201892BE6
S11301008093A20106C09091A201809589238093D7
S1130110A201419842988091A20185FF02C0409AB1
S113012001C04098429A42988091A20184FF02C083
S1130130409A01C04098429A42988091A20183FF5C
S113014002C0409A01C04098429A42988091A2010C
S113015082FF02C0409A01C04098429A429880911E
S1130160A20181FF02C0409A01C04098429A42987D
S11301708091A20180FF02C0409A01C04098429A37
S1130180419A0895CF93C82F613019F481E0B3DF09
S113019003C060E081E0AFDF61E082E0ACDFC4FF78
S11301A004C061E084E0A7DF03C060E084E0A3DF73
S11301B0C5FF04C061E088E09EDF03C060E088E022
S11301C09ADFC6FF04C061E080E195DF03C060E010
S11301D080E191DFCC2324F461E080E28CDF03C072
S11301E060E080E288DF60E082E085DF8FE39FE10A
S11301F00197F1F700C0000061E082E07CDFC0FFFE
S113020004C061E084E077DF03C060E084E073DF72
S1130210C1FF04C061E088E06EDF03C060E088E0F5
S11302206ADFC2FF04C061E080E165DF03C060E013
S113023080E161DFC3FF04C061E080E25CDF03C0F2
S113024060E080E258DF60E082E055DF8FE39FE109
S11302500197F1F700C00000CF91089587B187603E
S113026087B92FEF89EF90E0215080409040E1F76B
S113027000C0000060E082E185DF60E08CE082DFA6
S113028060E081E07FDF60E086E07CCF0895CF937B
S1130290DF93EC012196FC018491882339F061E01D
S11302A071DFFE01849121968111F9CFDF91CF9105
S11302B008951F920F920FB60F9211248F93EF930C
S11302C0FF938091C6008093E8018091A5018F5F20
S11302D08093A5018091E8018A3021F08091E801A2
S11302E08D3049F48091A701882329F01092A70149
S11302F081E08093A6018091E8018D30A9F080917E
S1130300E8018A3089F0E091A70181E08E0F8093A3
S1130310A701F0E08091E801E855FE4F80838091C9
S1130320A7018F738093A701FF91EF918F910F9095
S11303300FBE0F901F90189560E071E088EA91E07D
S1130340F5D0892B51F060E080E81CDF87EB90E06A
S11303509EDF81E08093A30125C066E071E088EA16
S113036091E0E4D0892B09F49AC08091A3019FEF16
S1130370980F973018F48F5F8093A30180E4E8EA24
S1130380F1E0DF011D928A95E9F7E091A3018E2F38
S113039090E0FC013197E830F10508F080C0EC5C96
S11303A0FF4FBEC060E080ECEDDE82EB90E06FDFDB
S11303B08FE39CE90197F1F700C0000089E091E028
S11303C09CD0A9C0089560E084E9DCDE8BEA90E06B
S11303D05EDFAFE3BCE91197F1F700C000008EE0E7
S11303E091E08BD098C0089560E084EDCBDE85EA7F
S11303F090E04DDF8FE39CE90197F1F700C0000026
S11304008AE191E07AD087C0089560E08AE8BADE94
S11304108FE990E03CDFAFE3BCE91197F1F700C04E
S1130420000083E591E069D076C0089560E08AEC2D
S1130430A9DE8AE990E02BDF8FE39CE90197F1F7CD
S113044000C0000086E791E058D065C0089560E0E0
S11304508EE998DE85E990E01ADFAFE3BCE91197F5
S1130460F1F700C0000082E891E047D054C008953D
S113047060E08EED87DE80E990E009DF8FE39CE9A0
S11304800197F1F700C0000084E991E036D043C041
S113049008958AE890E0FBDE81E08093A40108954A
S11304A018D0DCDE78948EE790E0F1DE8091A6012E
S11304B0882319F01092A6013FDF8091A4018130B6
S11304C0A9F71092A40160E05DDE88E790E0DFDE2A
S11304D0EDCF1092C50088E08093C40088E9809332
S11304E0C10086E08093C2000895E0ECF0E09081C2
S11304F095FFFDCF8093C6000895CF93DF93EC0161
S11305008881882329F02196F0DF89918111FCCF1D
S1130510DF91CF9108958DE0E8DF8AE0E6CF08957A
S1130520EE0FFF1F0590F491E02D0994FB0151910A
S11305305523A9F0BF01DC014D9145174111E1F7A5
S113054059F4CD010190002049F04D91401541111D
S1130550C9F3FB014111EFCF81E090E001970895C9
S1070560F894FFCF39
S11305647265616479004F4B004154453000415435
S11305742B43574D4F44453D320041542B4349507E
S113058441505F4445463D223139322E3136382EAE
S1130594342E30222C223139322E3136382E342E58
S11305A430222C223235352E3235352E3235352E45
S11305B430220041542B43575341505F4445463D38
S11305C42250545054222C223132333431323334B5
S11305D4222C362C340041542B4349504D55583D5C
S11305E4310041542B4349505345525645523D31F1
S11305F42C38310041542B43495053544F3D31302E
S10506043000C0
S9030000FC
