S00A000041502E7372656389
S11300000C9434000C943E000C943E000C943E007E
S11300100C943E000C943E000C943E000C943E0064
S11300200C943E000C943E000C943E000C943E0054
S11300300C943E000C943E000C943E000C943E0044
S11300400C943E000C943E000C943E000C943E0034
S11300500C943E000C943E000C943E000C943E0024
S11300600C943E000C943E0011241FBECFEFD8E048
S1130070DEBFCDBF0E9440000C944F000C940000E2
S11300800E944300FFCF1092C50085E08093C40016
S113009088E98093C10086E08093C2000895F894B3
S10500A0FFCF8C
S9030000FC
