:100000000C945E000C947B000C947B000C947B00A1
:100010000C947B000C947B000C947B000C947B0074
:100020000C947B000C947B000C947B000C947B0064
:100030000C947B000C947B000C947B000C947B0054
:100040000C947B000C947B000C9466010C947B0058
:100050000C947B000C947B000C947B000C947B0034
:100060000C947B000C947B00FD010E021F023902F0
:100070004A0261027602436F6E6E656374656400C6
:100080002020005769466920436C69656E740043FF
:10009000505354004349504D4F44450043574A4143
:1000A00050004349505354410043574D4F4445007D
:1000B00041544530007265616479000011241FBE0F
:1000C000CFEFD8E0DEBFCDBF11E0A0E0B1E0E4E6C5
:1000D000F7E002C005900D92A43CB107D9F722E0E9
:1000E000A4ECB1E001C01D92AD30B207E1F70E946F
:1000F0007B020C94B0030C9400009091C401662321
:1001000011F0892B02C0809589238093C401419806
:1001100042988091C40185FF02C0409A01C0409876
:10012000429A42988091C40184FF02C0409A01C063
:100130004098429A42988091C40183FF02C0409A3D
:1001400001C04098429A42988091C40182FF02C047
:10015000409A01C04098429A42988091C40181FF20
:1001600002C0409A01C04098429A42988091C401CE
:1001700080FF02C0409A01C04098429A419A089577
:10018000CF93C82F613009F060E081E00E947D00CC
:1001900061E082E00E947D00C4FF02C061E001C016
:1001A00060E084E00E947D00C5FF02C061E001C004
:1001B00060E088E00E947D00C6FF02C061E001C0EF
:1001C00060E080E10E947D00C7FF02C061E001C0E5
:1001D00060E080E20E947D0060E082E00E947D009D
:1001E0008FE39FE10197F1F700C0000061E082E03A
:1001F0000E947D00C0FF02C061E001C060E084E0B9
:100200000E947D00C1FF02C061E001C060E088E0A3
:100210000E947D00C2FF02C061E001C060E080E199
:100220000E947D00C3FF02C061E001C060E080E287
:100230000E947D0060E082E00E947D008FE39FE1EC
:100240000197F1F700C00000CF91089587B1876052
:1002500087B92FEF89EF90E0215080409040E1F77F
:1002600000C0000060E082E10E94C00060E08CE01D
:100270000E94C00060E081E00E94C00060E086E073
:100280000C94C0000F931F93CF938C01C0E0F80132
:10029000EC0FF11D8081882329F0CF5F61E00E947F
:1002A000C000F5CFCF911F910F910895CF93DF93A9
:1002B000FC018491EF012196882329F061E00E94DE
:1002C000C000FE01F6CFDF91CF9108951F920F92EB
:1002D0000FB60F9211248F93EF93FF938091C60076
:1002E00080930A0280910A028A3021F080910A02EA
:1002F0008D3049F48091C801882329F01092C801FB
:1003000081E08093C70180910A028D30A9F080912D
:100310000A028A3089F0E091C80181E08E0F809353
:10032000C801F0E080910A02E753FE4F808380917C
:10033000C8018F738093C801FF91EF918F910F9047
:100340000FBE0F901F901895CF9360E071E089EC7D
:1003500091E00E944E03892B01F160E080E80E9449
:10036000C00085EB90E00E94560181E08093C601B9
:10037000C1E066E071E089EC91E00E944E03892BB8
:1003800039F56FE071E089EC91E00E944E03892B12
:1003900019F181E080930902ACC068EA71E089EC50
:1003A00091E00E944E03892B11F4C0E0E2CF8091CE
:1003B000C6019FEF980F973018F48F5F8093C601A6
:1003C00080E4E9ECF1E0DF011D928A95E9F7D0CFF6
:1003D00081E08093C501D5CFCC2309F48AC0E09198
:1003E000C6018E2F90E0FC013197E730F10508F04F
:1003F00080C0EC5CFF4F0C94410360E080EC0E94F5
:10040000C00080EB90E00E9456018FE39CE90197C9
:10041000F1F700C0000086E191E063C060E084E98C
:100420000E94C00089EA90E00E945601AFE3BCE957
:100430001197F1F700C000008BE191E052C060E03D
:1004400084ED0E94C00082EA90E00E9456018FE392
:100450009CE90197F1F700C0000087E291E00E945B
:10046000100380910C02805D0E9409038DE391E0EE
:1004700038C060E08AE80E94C0008CE990E00E94E9
:100480005601AFE3BCE91197F1F700C000008DE51C
:1004900091E027C08091C501882359F11092C501D0
:1004A00060E08AEC0E94C00084E990E00E9456015E
:1004B0008FE39CE90197F1F700C0000088E791E025
:1004C00010C060E08EE90E94C0008FE890E00E94BA
:1004D0005601AFE3BCE91197F1F700C0000085E8D1
:1004E00091E00E941003CF910C941C0381E0809353
:1004F0000B02CF910895CF93DF9300D000D0CDB7FA
:10050000DEB70E94FD020E94260180E090E00E947A
:10051000A80380930C0283E890E00E94560178942F
:100520008091C701882309F452C01092C7010E942C
:10053000A40180910902882309F449C060E080EC9D
:100540000E94C0006EEE71E0CE0101960E9447034A
:10055000CE0101960E94420180E890E00E9456017F
:100560008BEA91E00E9410030E941C032FEF89EF99
:1005700090E0215080409040E1F700C000006AE028
:1005800080910C020E9422038CE20E940903CE019A
:1005900001960E9410032FEF83EF91E021508040DD
:1005A0009040E1F700C0000086EB91E00E9410034C
:1005B0002FEF83EF91E0215080409040E1F700C0A1
:1005C00000008AEB91E00E9410030E941C038091BE
:1005D0000B02882309F4A4CF10920B0260E081E0A3
:1005E0000E94C00086E790E00E9456018AEB91E0ED
:1005F0000E9410030E941C0393CF1092C50088E054
:100600008093C40088E98093C10086E08093C20093
:1006100008959091C00095FFFCCF8093C600089587
:10062000CF93DF93EC018991882319F00E9409038D
:10063000FACFDF91CF9108958DE00E9409038AE0FF
:100640000C940903CF93DF93CDB7DEB729970FB68C
:10065000F894DEBF0FBECDBF462F50E0BE016F5FE6
:100660007F4F90E00E946803CE0101960E94100324
:1006700029960FB6F894DEBF0FBECDBFDF91CF91A4
:100680000895EE0FFF1F0590F491E02D0994FB01F2
:10069000DC0101900D920020E1F70895FB015191DA
:1006A0005523A9F0BF01DC014D9145174111E1F738
:1006B00059F4CD010190002049F04D9140154111B0
:1006C000C9F3FB014111EFCF81E090E0019708955C
:1006D0004532510520F4423010F00C947303FB01B5
:1006E0001082CB010895BB274A3031F4992322F4BC
:1006F000BDE2909581959F4F0C947F03BB27FB0132
:100700005527AA27880F991FAA1FA41710F0A41B0A
:1007100083955051B9F7A05DAA3308F0A95DA19364
:10072000009779F7B111B1931192CB010C94980312
:10073000DC01FC01672F71917723E1F7329704C048
:100740007C916D9370836291AE17BF07C8F30895D3
:10075000F999FECF92BD81BDF89A992780B5089589
:04076000F894FFCF3B
:100764007265616479005749464920474F54002B0C
:1007740043574A415000415445300041542B43579C
:100784004D4F44453D310041542B4349505354414E
:100794003D223139322E3136382E342E00222C228D
:1007A4003139322E3136382E342E30222C22323545
:1007B400352E3235352E3235352E30220041542B2C
:1007C40043574A41503D2250545054222C22313236
:1007D400333431323334220041542B4349504D4F8A
:1007E40044453D310041542B4349505354415254E4
:1007F4003D22544350222C223139322E3136382EA8
:10080400342E30222C3831004F4B0041542B4349B5
:100814005053454E44002B2B2B0041542B43574A35
:0408240041503F0000
:00000001FF
